:100000000C945D000C94C3040C949C040C94850027
:100010000C9485000C9485000C9485000C9485004C
:100020000C9485000C9485000C9485000C9485003C
:100030000C9485000C9485000C9485000C9485002C
:100040000C9452040C9485000C9420040C94FA0334
:100050000C9485000C9485000C9485000C9485000C
:100060000C9485000C9485000000000024002700FB
:100070002A0000000000250028002B0004040404CE
:100080000404040402020202020203030303030342
:10009000010204081020408001020408102001021F
:1000A00004081020000000080002010000030407FB
:1000B0000000000000000000610811241FBECFEF07
:1000C000D8E0DEBFCDBF22E0A4E4B1E001C01D92C4
:1000D000A231B207E1F711E0A0E0B1E0E2EDFAE110
:1000E00002C005900D92A434B107D9F710E0CDE518
:1000F000D0E004C02197FE010E94660BCC35D107E9
:10010000C9F70E94EA040C94670D0C940000AF92AA
:10011000BF92CF92DF92EF92FF920F931F93CF93F4
:10012000DF936C017B018B01040F151FEB015E0156
:10013000AE18BF08C017D10759F06991D601ED91EB
:10014000FC910190F081E02DC6010995892B79F78A
:10015000C501DF91CF911F910F91FF90EF90DF903C
:10016000CF90BF90AF900895FC01538D448D252F03
:1001700030E0842F90E0821B930B541710F0CF9641
:10018000089501970895FC01918D828D981761F073
:10019000A28DAE0FBF2FB11D5D968C91928D9F5F8A
:1001A0009F73928F90E008958FEF9FEF08952FB780
:1001B000F89480916D0190916E01A0916F01B091C2
:1001C00070012FBF8093790190937A01A0937B01F6
:1001D000B0937C0181E791E00E94C30097FF26C0A5
:1001E0002FB7F89480916D0190916E01A0916F01ED
:1001F000B09170012FBF4091790150917A016091C7
:100200007B0170917C01841B950BA60BB70B409171
:100210007501509176016091770170917801841792
:100220009507A607B707B0F28FEF9FEF0895FC017F
:10023000918D828D981731F0828DE80FF11D858D9B
:1002400090E008958FEF9FEF0895FC01918D228D2E
:10025000892F90E0805C9F4F821B91098F739927B3
:10026000089581E791E00E94250121E0892B09F49E
:1002700020E0822F089580E090E0892B29F00E94F1
:10028000310181110C9400000895FC01A48DA80F88
:10029000B92FB11DA35ABF4F2C91848D90E00196C8
:1002A0008F739927848FA689B7892C93A089B189E8
:1002B0008C91837080648C93938D848D981306C089
:1002C0000288F389E02D80818F7D80830895EF92ED
:1002D000FF920F931F93CF93DF93EC0181E0888F00
:1002E0009B8D8C8D98131AC0E889F989808185FFD0
:1002F00015C09FB7F894EE89FF896083E889F98972
:1003000080818370806480839FBF81E090E0DF9173
:10031000CF911F910F91FF90EF900895F62E0B8DC6
:1003200010E00F5F1F4F0F731127E02E8C8D8E1181
:100330000CC00FB607FCFACFE889F989808185FFE8
:10034000F5CFCE010E944501F1CFEB8DEC0FFD2FD3
:10035000F11DE35AFF4FF0829FB7F8940B8FEA89A3
:10036000FB8980818062CFCFCF93DF93EC01888DB2
:100370008823B9F0AA89BB89E889F9898C9185FD20
:1003800003C0808186FD0DC00FB607FCF7CF8C91AE
:1003900085FFF2CF808185FFEDCFCE010E94450120
:1003A000E9CFDF91CF91089590E0FC01EC55FF4F2C
:1003B0002491FC01E057FF4F3491FC01E458FF4FBA
:1003C000E491EE23C9F0222339F0233001F1A8F49F
:1003D000213019F1223029F1F0E0EE0FFF1FEE5825
:1003E000FF4FA591B4918FB7F894EC91611126C09D
:1003F00030953E233C938FBF08952730A9F02830D5
:10040000C9F0243049F7809180008F7D03C080912E
:1004100080008F7780938000DFCF84B58F7784BD95
:10042000DBCF84B58F7DFBCF8091B0008F77809339
:10043000B000D2CF8091B0008F7DF9CF3E2BDACFC4
:10044000CF93DF9390E0FC01E057FF4F2491845855
:100450009F4FFC0184918823D1F090E0880F991F71
:10046000FC01E859FF4FA591B491FC01EE58FF4FF4
:10047000C591D49161110EC09FB7F8948C91E22F71
:10048000E0958E238C932881E223E8839FBFDF9140
:10049000CF9108958FB7F894EC91E22BEC938FBF36
:1004A000F6CF08953FB7F894809150019091510193
:1004B000A0915201B091530126B5A89B05C02F3FD2
:1004C00019F00196A11DB11D3FBFBA2FA92F982F7A
:1004D0008827BC01CD01620F711D811D911D42E075
:1004E000660F771F881F991F4A95D1F70E94CF0882
:1004F00060934C0170934D0180934E0190934F0196
:1005000060914C0170914D0180914E0190914F018D
:10051000209148013091490140914A0150914B018D
:100520000E94250A6093440170934501809346011F
:10053000909347016091440170914501809146017B
:100540009091470120E030E040EC51E40E943009F6
:100550009B01AC0160EC71EE84E69CE40E94920A7F
:100560006093690170936A0180936B0190936C01B1
:1005700080914C0190914D01A0914E01B0914F019D
:100580008093480190934901A0934A01B0934B0195
:100590000895FC0101900020E9F73197AF01481B55
:1005A000590BBC0181E791E00C9487008F929F92D8
:1005B000AF92BF920F931F93CF93DF93CDB7DEB768
:1005C000A1970FB6F894DEBF0FBECDBF19A242307F
:1005D00008F44AE08E010F5D1F4F842E912CB12C40
:1005E000A12CA50194010E94440BE62FB901CA0178
:1005F000EA30F4F4E05DD801EE938D01232B242B37
:10060000252B79F790E080E0109719F0CD010E943A
:10061000C902A1960FB6F894DEBF0FBECDBFDF9121
:10062000CF911F910F91BF90AF909F908F900895A1
:10063000E95CE1CFFC0180819181009711F00C947D
:100640008E0860E070E0CB010895FC0124813581C3
:10065000232B39F421E0FB018081882349F020E03D
:1006600007C0808191810E94570D21E0892BB9F745
:10067000822F08950F931F93CF93DF93EC0188810E
:100680009981009759F02A813B812617370730F06E
:1006900081E0DF91CF911F910F9108958B016F5FE2
:1006A0007F4F0E94910C009759F0998388831B8398
:1006B0000A832C813D81232B59F7FC011082E8CF5E
:1006C00080E0E7CFCF93DF93EC0188819981009799
:1006D00011F00E94080C198218821D821C821B8254
:1006E0001A82DF91CF910895CF93DF93EC0170E0F0
:1006F00060E00E943A03811105C0CE01DF91CF91E5
:100700000C9462031D821C8262E471E088819981ED
:10071000DF91CF910C94600D9F92AF92BF92CF92D8
:10072000DF92EF92FF920F931F93CF93DF93EC0131
:100730006B015A0179012417350720F48B2D5901DB
:10074000E42EF82E198218821B821A821D821C82C6
:10075000CE010E947403D60114960D911C91A0162F
:10076000B10658F5E016F10608F48701D601ED91BF
:10077000FC911197E00FF11F90801082ED90FC909A
:10078000EA0CFB1CE114F10471F0F7010190002068
:10079000E9F731975F01AE18BF08B501CE010E949D
:1007A0003A03811117C0CE010E946203F6018081D5
:1007B0009181080F191FD8019C92CE01DF91CF9132
:1007C0001F910F91FF90EF90DF90CF90BF90AF906F
:1007D0009F900895BD82AC82B701888199810E9463
:1007E000600DE4CFFC0180819181009711F00C94A1
:1007F000080C08951F920F920FB60F9211242F9399
:100800003F934F935F936F937F938F939F93AF9398
:10081000BF93EF93FF9381E791E00E944501FF9121
:10082000EF91BF91AF919F918F917F916F915F9168
:100830004F913F912F910F900FBE0F901F901895E1
:100840001F920F920FB60F9211242F938F939F93A5
:10085000EF93FF93E0918101F09182018081E0911B
:100860008701F091880182FD1BC0908180918A01EF
:100870008F5F8F7320918B01821741F0E0918A0185
:10088000F0E0EF58FE4F958F80938A01FF91EF9132
:100890009F918F912F910F900FBE0F901F901895E1
:1008A0008081F4CF1F920F920FB60F9211242F93D5
:1008B0003F938F939F93AF93BF9380916D019091DE
:1008C0006E01A0916F01B09170013091540123E04D
:1008D000230F2D3758F50196A11DB11D209354010A
:1008E00080936D0190936E01A0936F01B09370019E
:1008F0008091500190915101A0915201B09153010A
:100900000196A11DB11D8093500190935101A093B8
:100910005201B0935301BF91AF919F918F913F913D
:100920002F910F900FBE0F901F90189526E8230F60
:100930000296A11DB11DD2CF1F920F920FB60F923A
:1009400011242F933F934F935F936F937F938F93D4
:100950009F93AF93BF93EF93FF93E0910201F091C8
:1009600003010995FF91EF91BF91AF919F918F91F5
:100970007F916F915F914F913F912F910F900FBE9B
:100980000F901F9018951F920F920FB60F9211247F
:100990002F933F934F935F936F937F938F939F9387
:1009A000AF93BF93EF93FF93E0910001F0910101AA
:1009B0000995FF91EF91BF91AF919F918F917F9199
:1009C0006F915F914F913F912F910F900FBE0F90BC
:1009D0001F901895CF93DF93CDB7DEB76E970FB604
:1009E000F894DEBF0FBECDBF789484B5826084BD1D
:1009F00084B5816084BD85B5826085BD85B5816023
:100A000085BD80916E00816080936E0010928100A0
:100A1000809181008260809381008091810081605B
:100A2000809381008091800081608093800080911C
:100A3000B10084608093B1008091B00081608093A8
:100A4000B00080917A00846080937A0080917A006F
:100A5000826080937A0080917A00816080937A002E
:100A600080917A00806880937A001092C100E091B2
:100A70008101F091820182E08083E0917D01F0911B
:100A80007E011082E0917F01F09180018FEC8083E4
:100A900010928901E0918501F091860186E08083C2
:100AA000E0918301F0918401808180618083E091F5
:100AB0008301F0918401808188608083E0918301CB
:100AC000F0918401808180688083E0918301F091BE
:100AD000840180818F7D808360E082E00E9420021B
:100AE00060E083E00E94200282E592E090930101A1
:100AF0008093000180916900836080936900E89A87
:100B000061E085E00E94200261E08AE00E9420020C
:100B100061E089E00E94200229EA222E20E0322EA4
:100B200000E010E081E791E00E942501892B09F4A3
:100B300063C01E861D86188A1F861A8A198ACE01EE
:100B40000D960E9474030E94D70029893A8997FD67
:100B50001BC089831A8279018FEFE81AF80AB7015E
:100B6000CE010D960E943A03882369F32D853E85B8
:100B700089899A89BE016F5F7F4F820F931F0E9400
:100B8000600DFA8AE98ADFCF41E050E0BE01635F81
:100B90007F4FCE0107960E948C0329893A8950E045
:100BA00040E0BE01635F7F4FCE0101960E948C033F
:100BB0006CE271E0CE0101960E942503F82ECE0171
:100BC00001960E94F203FF2009F413C1CE010D9695
:100BD0000E941A030E94D1086093100170931101C2
:100BE0008093120190931301CE0107960E94F203A5
:100BF000CE010D960E94F2038091690190916A01E5
:100C0000A0916B01B0916C01809365019093660196
:100C1000A0936701B0936801C0906501D090660110
:100C2000E0906701F0906801A7019601C701B60145
:100C30000E943F0B882309F452C184E391E00E9493
:100C4000C90280E491E00E94C902209165013091BF
:100C500066014091670150916801609104017091B3
:100C6000050180910601909107010E94250A6B0100
:100C70007C01C0926101D0926201E0926301F09226
:100C8000640180915D0190915E01A0915F01B0913E
:100C900060018B8B9C8BAD8BBE8B809108019091FA
:100CA0000901A0910A01B0910B018F8B988FA98F38
:100CB000BA8F80910C0190910D01A0910E01B0911D
:100CC0000F018B8F9C8FAD8FBE8F40901001509085
:100CD000110160901201709013012AE037ED43E298
:100CE0005CE36B897C898D899E890E943009209103
:100CF00055013091560140915701509158010E9481
:100D0000260A4B015C018092550190925601A092F7
:100D10005701B0925801A3019201C701B6010E9488
:100D200030092B013C01A50194016F89788D898DD3
:100D30009A8D0E9430099B01AC01C301B2010E944F
:100D4000260A4B015C012B893C894D895E89C701CC
:100D5000B6010E94250A2B8D3C8D4D8D5E8D0E9423
:100D600030092AE037ED43E25CE30E94920A9B01DE
:100D7000AC01C501B4010E94260A4B015C018092BE
:100D8000590190925A01A0925B01B0925C01C0920D
:100D90005D01D0925E01E0925F01F092600120E07F
:100DA00030E0A9010E94CA08EE24E394F12C87FFE9
:100DB00003C0EE24EA94FE2CC501B4010E94040B8A
:100DC0004B016B0161E085E00E94200281149104D7
:100DD00009F017C160E085E00E94D40181E0E816C7
:100DE000F10409F056C161E08AE00E94D40160E09C
:100DF00059C129893A8950E040E0BE01635F7F4FC5
:100E0000CE0101960E948C036EE271E0CE01019644
:100E10000E942503F82ECE0101960E94F203FF20C6
:100E200079F0CE010D960E941A030E94D1086093BA
:100E30000C0170930D0180930E0190930F01D4CE9D
:100E400029893A8950E040E0BE01635F7F4FCE01BF
:100E500001960E948C0360E371E0CE0101960E942E
:100E60002503F82ECE0101960E94F203FF2079F0AF
:100E7000CE010D960E941A030E94D10860930801CA
:100E80007093090180930A0190930B01ADCE2989DB
:100E90003A8950E040E0BE01635F7F4FCE0101968A
:100EA0000E948C0362E371E0CE0101960E9425034B
:100EB000F82ECE0101960E94F203FF2009F494CE91
:100EC000CE010D960E941A030E94D108609304017E
:100ED00070930501809306019093070185CE46012A
:100EE0005701E894B7F82FEF3FEF4FE75FE7C501F1
:100EF000B4010E943F0B81110DC02FEF3FEF4FE770
:100F00005FE7C501B4010E94CA0818161CF488E303
:100F100091E095CE2FEF3FEF4FE75FE4C701B601B9
:100F20000E943A0B18161CF48CE391E088CE2FEF48
:100F30003FEF4FE75FECC701B6010E94CA0887FD8B
:100F4000F3CF20E030E0A901C701B6010E94CA0832
:100F500087FF09C06DE281E791E00E946701F7FA1F
:100F6000F094F7F8F0942AE037ED43EA5BE3C70129
:100F7000B6010E94260A4B015C010E940B0B6B011B
:100F80007C010E94CF089B01AC01C501B4010E9405
:100F9000250A4B015C014AE0C701B6010E94D60256
:100FA0006EE281E791E00E94670120E030E040E2DC
:100FB00051E4C501B4010E9430094B015C010E945B
:100FC0000B0B6B01F12CE12C4AE0C701B6010E942A
:100FD000D602C701B6010E94CF089B01AC01C50132
:100FE000B4010E94250A20E030E040E251E40E9472
:100FF00030090E940B0B90E080E04AE00E94D6028C
:1010000020CE9FEF8916910411F461E0E4CEF10146
:101010008491833021F148F48130B9F08230D1F0ED
:10102000F0E8CF16D1048CF7D5CE873011F1883097
:1010300041F18430A9F78091800080628093800024
:1010400090928B0080928A00C9CE84B5806884BD5E
:1010500087BCC4CE84B5806284BD88BCBFCE80917D
:101060008000806880938000909289008092880040
:10107000B5CE8091B00080688093B0008092B300BC
:10108000ADCE8091B00080628093B0008092B400B9
:10109000A5CE60E08AE0EF20E09409F0A6CE0E94A1
:1010A000D40161E089E00E94D4010115110509F421
:1010B00039CD0E943101882309F434CD0E9400000B
:1010C00031CDE1E7F1E01382128288EE93E0A0E0F7
:1010D000B0E084839583A683B7838EE191E091830A
:1010E000808385EC90E09587848784EC90E09787F7
:1010F000868780EC90E0918B808B81EC90E0938BE5
:10110000828B82EC90E0958B848B86EC90E0978BC1
:10111000868B118E128E138E148E08951F93FC01F0
:1011200099278827BC01E89411911032E9F319300E
:1011300010F01E30C8F31B3251F01D3249F4689490
:1011400006C00E94B508610F711D811D911D11918E
:1011500010531A30B0F33EF49095809570956195D8
:101160007F4F8F4F9F4F1F910895592F482F372F33
:10117000262F660F771F881F991F660F771F881FFE
:10118000991F620F731F841F951F660F771F881F9B
:10119000991F08950E940C0908F481E00895E894CD
:1011A00009C097FB3EF490958095709561957F4FAF
:1011B0008F4F9F4F9923A9F0F92F96E9BB2793955D
:1011C000F695879577956795B795F111F8CFFAF46D
:1011D000BB0F11F460FF1BC06F5F7F4F8F4F9F4F9E
:1011E00016C0882311F096E911C0772321F09EE8FC
:1011F000872F762F05C0662371F096E8862F70E062
:1012000060E02AF09A95660F771F881FDAF7880F3B
:101210009695879597F90895990F0008550FAA0B91
:10122000E0E8FEEF16161706E807F907C0F01216F9
:101230001306E407F50798F0621B730B840B950BFC
:1012400039F40A2661F0232B242B252B21F4089551
:101250000A2609F4A140A6958FEF811D811D0895EE
:101260000E9443090C94B4090E94A60938F00E9418
:10127000AD0920F0952311F00C949D090C94A3095D
:1012800011240C94E8090E94C50970F3959FC1F3DD
:10129000950F50E0551F629FF001729FBB27F00D24
:1012A000B11D639FAA27F00DB11DAA1F649F662779
:1012B000B00DA11D661F829F2227B00DA11D621FC8
:1012C000739FB00DA11D621F839FA00D611D221F82
:1012D000749F3327A00D611D231F849F600D211D66
:1012E000822F762F6A2F11249F5750409AF0F1F0E9
:1012F00088234AF0EE0FFF1FBB1F661F771F881F52
:1013000091505040A9F79E3F510580F00C949D09E3
:101310000C94E8095F3FE4F3983ED4F38695779503
:101320006795B795F795E7959F5FC1F7FE2B880FF7
:10133000911D9695879597F9089597F99F6780E88D
:1013400070E060E008959FEF80EC089500240A9417
:101350001616170618060906089500240A94121690
:101360001306140605060895092E0394000C11F4C3
:10137000882352F0BB0F40F4BF2B11F460FF04C070
:101380006F5F7F4F8F4F9F4F089557FD9058440FC9
:10139000551F59F05F3F71F04795880F97FB991FD4
:1013A00061F09F3F79F08795089512161306140691
:1013B000551FF2CF4695F1DF08C01616170618061E
:1013C000991FF1CF86957105610508940895E894F9
:1013D000BB2766277727CB0197F908952F923F9275
:1013E0004F925F926F927F928F929F92AF92BF9235
:1013F000CF92DF92EF92FF920F931F93CF93DF93E1
:10140000CDB7DEB7CA1BDB0B0FB6F894DEBF0FBE3D
:10141000CDBF09942A88398848885F846E847D848A
:101420008C849B84AA84B984C884DF80EE80FD808C
:101430000C811B81AA81B981CE0FD11D0FB6F89402
:10144000DEBF0FBECDBFED0108955058BB27AA27C0
:101450000E943D0A0C94B4090E94A60938F00E942B
:10146000AD0920F039F49F3F19F426F40C94A30938
:101470000EF4E095E7FB0C949D09E92F0E94C50945
:1014800058F3BA17620773078407950720F079F4B9
:10149000A6F50C94E7090EF4E0950B2EBA2FA02DBB
:1014A0000B01B90190010C01CA01A0011124FF2711
:1014B000591B99F0593F50F4503E68F11A16F0400C
:1014C000A22F232F342F4427585FF3CF469537950B
:1014D0002795A795F0405395C9F77EF41F16BA0BD0
:1014E000620B730B840BBAF09150A1F0FF0FBB1F7E
:1014F000661F771F881FC2F70EC0BA0F621F731FC7
:10150000841F48F4879577956795B795F7959E3F23
:1015100008F0B0CF9395880F08F09927EE0F9795B4
:10152000879508950E94A60A0C94B4090E94AD09FB
:1015300058F00E94A60940F029F45F3F29F00C946E
:101540009D0951110C94E8090C94A3090E94C50946
:1015500068F39923B1F3552391F3951B550BBB27E2
:10156000AA2762177307840738F09F5F5F4F220F27
:10157000331F441FAA1FA9F335D00E2E3AF0E0E81E
:1015800032D091505040E695001CCAF72BD0FE2F68
:1015900029D0660F771F881FBB1F261737074807FC
:1015A000AB07B0E809F0BB0B802DBF01FF279358B4
:1015B0005F4F3AF09E3F510578F00C949D090C94D2
:1015C000E8095F3FE4F3983ED4F3869577956795F5
:1015D000B795F7959F5FC9F7880F911D96958795E9
:1015E00097F90895E1E0660F771F881FBB1F621708
:1015F00073078407BA0720F0621B730B840BBA0BC6
:10160000EE1F88F7E09508950E940B0B6894B111C6
:101610000C94E80908950E94CD0988F09F5798F02E
:10162000B92F9927B751B0F0E1F0660F771F881FE7
:10163000991F1AF0BA95C9F714C0B13091F00E9401
:10164000E709B1E008950C94E709672F782F882700
:10165000B85F39F0B93FCCF3869577956795B39528
:10166000D9F73EF490958095709561957F4F8F4F97
:101670009F4F08950E940C0908F48FEF08950E946F
:101680000C09880B990B0895A1E21A2EAA1BBB1B0B
:10169000FD010DC0AA1FBB1FEE1FFF1FA217B3073E
:1016A000E407F50720F0A21BB30BE40BF50B661F54
:1016B000771F881F991F1A9469F760957095809518
:1016C00090959B01AC01BD01CF010895EE0FFF1F66
:1016D0000590F491E02D09940F931F93CF93DF931E
:1016E0008230910510F482E090E0E0911002F091D8
:1016F000110230E020E0B0E0A0E0309799F421152D
:10170000310509F44AC0281B390B24303105D8F5BE
:101710008A819B816115710589F1FB019383828325
:10172000FE0111C040815181028113814817590780
:10173000E0F04817590799F4109761F012960C934E
:10174000129713961C933296CF01DF91CF911F9180
:101750000F9108950093100210931102F4CF2115F8
:10176000310551F04217530738F0A901DB019A0106
:10177000BD01DF01F801C1CFEF01F9CF9093110254
:1017800080931002CDCFFE01E20FF31F819391935E
:101790002250310939832883D7CF20910E0230910E
:1017A0000F02232B41F42091160130911701309341
:1017B0000F0220930E022091140130911501211582
:1017C000310541F42DB73EB74091180150911901F0
:1017D000241B350BE0910E02F0910F02E217F30784
:1017E000A0F42E1B3F0B2817390778F0AC014E5F91
:1017F0005F4F2417350748F04E0F5F1F50930F02BD
:1018000040930E02819391939FCFF0E0E0E09CCF54
:10181000CF93DF930097E9F0FC0132971382128295
:10182000A0911002B0911102ED0130E020E010977C
:10183000A1F420813181820F931F20910E023091FB
:101840000F022817390709F061C0F0930F02E093E7
:101850000E02DF91CF910895EA01CE17DF07E8F578
:101860004A815B819E0141155105B1F7E901FB8376
:10187000EA8349915991C40FD51FEC17FD0761F414
:10188000808191810296840F951FE9019983888355
:10189000828193819B838A83F0E0E0E012968D91B0
:1018A0009C9113970097B9F52D913C911197CD011B
:1018B0000296820F931F20910E0230910F0228177B
:1018C000390739F6309751F5109211021092100233
:1018D000B0930F02A0930E02BCCFD383C28340818A
:1018E0005181840F951FC817D90761F44E5F5F4F70
:1018F00088819981480F591F518340838A819B8138
:10190000938382832115310509F0B0CFF093110242
:10191000E09310029ECFFD01DC01C0CF1382128242
:10192000D7CFB0E0A0E0E7E9FCE00C94F0098C012F
:10193000009751F4CB010E946C0B8C01C801CDB70C
:10194000DEB7E0E10C940C0AFC01E60FF71F9C01E6
:1019500022503109E217F30708F49DC0D901CD9157
:10196000DC911197C617D70798F0C530D10530F331
:10197000CE0104978617970708F3C61BD70B22974B
:10198000C193D1936D937C93CF010E94080CD6CF65
:101990005B01AC1ABD0A4C018C0E9D1EA091100279
:1019A000B0911102512C412CF12CE12C109731F502
:1019B00080910E0290910F028815990509F05CC084
:1019C0004616570608F058C08091140190911501F1
:1019D000009741F48DB79EB74091180150911901BD
:1019E000841B950BE817F90708F055C0F0930F0218
:1019F000E0930E02F90171836083A0CF8D919C91D9
:101A0000119712966C90129713967C901397A815C5
:101A1000B90559F56C0142E0C40ED11CCA14DB04AF
:101A200020F1AC014A195B09DA011296159780F092
:101A30006282738251834083D9016D937C93E11458
:101A4000F10471F0D7011396FC93EE93129776CFC1
:101A500022968C0F9D1FF90191838083F301EFCFB4
:101A6000F0931102E093100269CF4816590608F46A
:101A70002C017D01D3019ACFCB010E946C0B7C011C
:101A8000009749F0AE01B8010E944E0DC8010E94B6
:101A9000080C870153CF10E000E050CFFB01DC01C0
:101AA00002C001900D9241505040D8F70895FB01BB
:101AB000DC018D91019080190110D9F3990B0895E3
:101AC000FB01DC0101900D920020E1F70895F894EC
:021AD000FFCF46
:101AD200510251020000C8420000803F0000003F56
:101AE2000000204200001202800000000000670196
:101AF2008700B400B4012501C3001701500049005A
:101B0200440048006E616E00696E66006F76660082
:041B12000D0A0000B8
:00000001FF
